{
  "transactions": [
    {
      "hash": "0x13af8123b4a7a6acde122596d309f93ed1d4655d77b754f83ebb6eb98f72d8f2",
      "transactionType": "CALL",
      "contractName": null,
      "contractAddress": "0x779877a7b0d9e8603169ddbd7836e478b4624789",
      "function": "transferAndCall(address,uint256,bytes)",
      "arguments": [
        "0xf0d54349aDdcf704F77AE15b96510dEA15cb7952",
        "3000000000000000000",
        "0xc46247f9b057538f6ee8cab7205ecd3f7a6680e215fe8d25442b933827efbb08"
      ],
      "transaction": {
        "from": "0x008dd4610bbe012ce6df831b64715866aea249fc",
        "to": "0x779877a7b0d9e8603169ddbd7836e478b4624789",
        "gas": "0xde46",
        "value": "0x0",
        "input": "0x4000aea0000000000000000000000000f0d54349addcf704f77ae15b96510dea15cb795200000000000000000000000000000000000000000000000029a2241af62c000000000000000000000000000000000000000000000000000000000000000000600000000000000000000000000000000000000000000000000000000000000020c46247f9b057538f6ee8cab7205ecd3f7a6680e215fe8d25442b933827efbb08",
        "nonce": "0xc",
        "chainId": "0xaa36a7"
      },
      "additionalContracts": [],
      "isFixedGasLimit": false
    }
  ],
  "receipts": [
    {
      "status": "0x1",
      "cumulativeGasUsed": "0xf65fc2",
      "logs": [
        {
          "address": "0x779877a7b0d9e8603169ddbd7836e478b4624789",
          "topics": [
            "0xddf252ad1be2c89b69c2b068fc378daa952ba7f163c4a11628f55a4df523b3ef",
            "0x000000000000000000000000008dd4610bbe012ce6df831b64715866aea249fc",
            "0x000000000000000000000000f0d54349addcf704f77ae15b96510dea15cb7952"
          ],
          "data": "0x00000000000000000000000000000000000000000000000029a2241af62c0000",
          "blockHash": "0x9ffac0795c03cdf04ba29e3d5e09fe967c800150ec5283458220137ca94ecd0c",
          "blockNumber": "0x83862c",
          "blockTimestamp": "0x685ac0e8",
          "transactionHash": "0x13af8123b4a7a6acde122596d309f93ed1d4655d77b754f83ebb6eb98f72d8f2",
          "transactionIndex": "0x45",
          "logIndex": "0x53",
          "removed": false
        },
        {
          "address": "0x779877a7b0d9e8603169ddbd7836e478b4624789",
          "topics": [
            "0xe19260aff97b920c7df27010903aeb9c8d2be5d310a2c67824cf3f15396e4c16",
            "0x000000000000000000000000008dd4610bbe012ce6df831b64715866aea249fc",
            "0x000000000000000000000000f0d54349addcf704f77ae15b96510dea15cb7952"
          ],
          "data": "0x00000000000000000000000000000000000000000000000029a2241af62c000000000000000000000000000000000000000000000000000000000000000000400000000000000000000000000000000000000000000000000000000000000020c46247f9b057538f6ee8cab7205ecd3f7a6680e215fe8d25442b933827efbb08",
          "blockHash": "0x9ffac0795c03cdf04ba29e3d5e09fe967c800150ec5283458220137ca94ecd0c",
          "blockNumber": "0x83862c",
          "blockTimestamp": "0x685ac0e8",
          "transactionHash": "0x13af8123b4a7a6acde122596d309f93ed1d4655d77b754f83ebb6eb98f72d8f2",
          "transactionIndex": "0x45",
          "logIndex": "0x54",
          "removed": false
        }
      ],
      "logsBloom": "0x00000004000800000000000000000000000000000002000000000000020000000000000000000000000000000000000000000000000000000000000000000000000000000000000040000008000000000000000000000000000020000000200000000000000000000000000000000000000000000000000000000010000000000000000000000000000000000000800000000020000000000000000000000000000000000000000000000000040000000000000008000000000000000000000000000002000000000000000000000000000000000000000100000000000000000000000000000000000000000000000000000000000000000000000000000000",
      "type": "0x2",
      "transactionHash": "0x13af8123b4a7a6acde122596d309f93ed1d4655d77b754f83ebb6eb98f72d8f2",
      "transactionIndex": "0x45",
      "blockHash": "0x9ffac0795c03cdf04ba29e3d5e09fe967c800150ec5283458220137ca94ecd0c",
      "blockNumber": "0x83862c",
      "gasUsed": "0xa0ed",
      "effectiveGasPrice": "0x8c7a36f2",
      "from": "0x008dd4610bbe012ce6df831b64715866aea249fc",
      "to": "0x779877a7b0d9e8603169ddbd7836e478b4624789",
      "contractAddress": null
    }
  ],
  "libraries": [],
  "pending": [],
  "returns": {},
  "timestamp": 1750778089,
  "chain": 11155111,
  "commit": "bdf8e35"
}