{
  "transactions": [
    {
      "hash": "0x67ce20e86823bcc073703d2c9e0d362a97bb7acb70d85532092e43d53eda8e3d",
      "transactionType": "CALL",
      "contractName": null,
      "contractAddress": "0x779877a7b0d9e8603169ddbd7836e478b4624789",
      "function": "transferAndCall(address,uint256,bytes)",
      "arguments": [
        "0x9DdfaCa8183c41ad55329BdeeD9F6A8d53168B1B",
        "3000000000000000000",
        "0xc46247f9b057538f6ee8cab7205ecd3f7a6680e215fe8d25442b933827efbb08"
      ],
      "transaction": {
        "from": "0x008dd4610bbe012ce6df831b64715866aea249fc",
        "to": "0x779877a7b0d9e8603169ddbd7836e478b4624789",
        "gas": "0x14cbb",
        "value": "0x0",
        "input": "0x4000aea00000000000000000000000009ddfaca8183c41ad55329bdeed9f6a8d53168b1b00000000000000000000000000000000000000000000000029a2241af62c000000000000000000000000000000000000000000000000000000000000000000600000000000000000000000000000000000000000000000000000000000000020c46247f9b057538f6ee8cab7205ecd3f7a6680e215fe8d25442b933827efbb08",
        "nonce": "0xd",
        "chainId": "0xaa36a7"
      },
      "additionalContracts": [],
      "isFixedGasLimit": false
    }
  ],
  "receipts": [
    {
      "status": "0x1",
      "cumulativeGasUsed": "0x18e9190",
      "logs": [
        {
          "address": "0x779877a7b0d9e8603169ddbd7836e478b4624789",
          "topics": [
            "0xddf252ad1be2c89b69c2b068fc378daa952ba7f163c4a11628f55a4df523b3ef",
            "0x000000000000000000000000008dd4610bbe012ce6df831b64715866aea249fc",
            "0x0000000000000000000000009ddfaca8183c41ad55329bdeed9f6a8d53168b1b"
          ],
          "data": "0x00000000000000000000000000000000000000000000000029a2241af62c0000",
          "blockHash": "0xd5dd00fb9d9ccc1f3ee0fd1f537f1b5484c9bf978272349b4120b76d383937bb",
          "blockNumber": "0x838647",
          "blockTimestamp": "0x685ac22c",
          "transactionHash": "0x67ce20e86823bcc073703d2c9e0d362a97bb7acb70d85532092e43d53eda8e3d",
          "transactionIndex": "0x55",
          "logIndex": "0xa8",
          "removed": false
        },
        {
          "address": "0x779877a7b0d9e8603169ddbd7836e478b4624789",
          "topics": [
            "0xe19260aff97b920c7df27010903aeb9c8d2be5d310a2c67824cf3f15396e4c16",
            "0x000000000000000000000000008dd4610bbe012ce6df831b64715866aea249fc",
            "0x0000000000000000000000009ddfaca8183c41ad55329bdeed9f6a8d53168b1b"
          ],
          "data": "0x00000000000000000000000000000000000000000000000029a2241af62c000000000000000000000000000000000000000000000000000000000000000000400000000000000000000000000000000000000000000000000000000000000020c46247f9b057538f6ee8cab7205ecd3f7a6680e215fe8d25442b933827efbb08",
          "blockHash": "0xd5dd00fb9d9ccc1f3ee0fd1f537f1b5484c9bf978272349b4120b76d383937bb",
          "blockNumber": "0x838647",
          "blockTimestamp": "0x685ac22c",
          "transactionHash": "0x67ce20e86823bcc073703d2c9e0d362a97bb7acb70d85532092e43d53eda8e3d",
          "transactionIndex": "0x55",
          "logIndex": "0xa9",
          "removed": false
        },
        {
          "address": "0x9ddfaca8183c41ad55329bdeed9f6a8d53168b1b",
          "topics": [
            "0x1ced9348ff549fceab2ac57cd3a9de38edaaab274b725ee82c23e8fc8c4eec7a",
            "0xc46247f9b057538f6ee8cab7205ecd3f7a6680e215fe8d25442b933827efbb08"
          ],
          "data": "0x0000000000000000000000000000000000000000000000004563918244f400000000000000000000000000000000000000000000000000006f05b59d3b200000",
          "blockHash": "0xd5dd00fb9d9ccc1f3ee0fd1f537f1b5484c9bf978272349b4120b76d383937bb",
          "blockNumber": "0x838647",
          "blockTimestamp": "0x685ac22c",
          "transactionHash": "0x67ce20e86823bcc073703d2c9e0d362a97bb7acb70d85532092e43d53eda8e3d",
          "transactionIndex": "0x55",
          "logIndex": "0xaa",
          "removed": false
        }
      ],
      "logsBloom": "0x00000004000800000000000000000000000000000020000000000000020000000000000000000000000000000000000000000000000000000000000000000000000000000000000040000008000000000000000000000000000020000020000008000000000000000000000000000004400000000000000000000010000040000000000000000000000000010000800000000020000000000000000000000000000000000000000000000000050000000000000000000000000004000000000000000002000000000000000000000000000000000000000100000000000000000010000000000000800000000000000000010000000000000000000000000000",
      "type": "0x2",
      "transactionHash": "0x67ce20e86823bcc073703d2c9e0d362a97bb7acb70d85532092e43d53eda8e3d",
      "transactionIndex": "0x55",
      "blockHash": "0xd5dd00fb9d9ccc1f3ee0fd1f537f1b5484c9bf978272349b4120b76d383937bb",
      "blockNumber": "0x838647",
      "gasUsed": "0xf0e5",
      "effectiveGasPrice": "0x76b84a2b",
      "from": "0x008dd4610bbe012ce6df831b64715866aea249fc",
      "to": "0x779877a7b0d9e8603169ddbd7836e478b4624789",
      "contractAddress": null
    }
  ],
  "libraries": [],
  "pending": [],
  "returns": {},
  "timestamp": 1750778413,
  "chain": 11155111,
  "commit": "bdf8e35"
}